:020000041000EA
:10000000002008205D0100101B0100101D010010E0
:100010001101001011010010110100101101001058
:100020001901001019010010190100101F01001022
:10003000110100101901001021010010230100100E
:100040001101001011010010110100101101001028
:100050001101001011010010110100101101001018
:100060001101001011010010110100101101001008
:1000700011010010110100101101001011010010F8
:1000800011010010110100101101001011010010E8
:1000900011010010110100101101001011010010D8
:1000A00011010010110100101101001011010010C8
:1000B00011010010110100101101001011010010B8
:1000C00011010010110100101101001011010010A8
:1000D0001101001011010010110100101101001098
:1000E0001101001011010010110100101101001088
:1000F0001101001011010010110100101101001078
:100100001101001011010010110100101101001067
:10011000EFF30580103800BE00BE00BE00BE00BE7A
:1001200000BE00BEF2EB8871F80100104002001022
:10013000A001001090A31AE7D3DEFFFF42012110B7
:10014000FF010000DC970000793512AB4FF0000092
:100150002149086006C881F3088810474FF05040D5
:10016000006810B14FF00000F2E70DA40ECC00299A
:1001700002D000F012F8F9E71849194A002000E00F
:1001800001C19142FCD1174988471749884717494F
:10019000884700BEFDE701C901C29A42FBD3704700
:1001A0004002001010010020C0840020F0850010E3
:1001B000C0840020E497002014990010000008205B
:1001C00000000820149900100010082000100820DA
:1001D000000000007047000008ED00E0E4970020F8
:1001E0006CFA0120FD31002025020020F5310020AD
:0801F000D8800010010000009E
:1001F8001494002008940020FC930020F093002021
:10020800E4930020D8930020749500208095002066
:100218008C95002098950020A4950020B09500208A
:10022800BC9500205496002048960020E0950020B8
:08023800D8950020CC950020B0
:10024000F8B500BF0348044B834202D0034B03B10F
:1002500018477047E4970020E49700200000000052
:10026000064B0749C91A891048BF0131491003D00C
:10027000044B0BB101481847704700BFE4970020BA
:10028000E49700200000000010B5064C237843B925
:10029000FFF7D8FF044B13B10448AFF300800123EC
:1002A000237010BD30AA002000000000C084002090
:1002B00008B5044B1BB104490448AFF30080BDE806
:1002C0000840CDE70000000034AA0020C0840020D0
:1002D000704700BF00B5192083B002F0BDFC4FF09D
:1002E0000105192345EC443007F0B8F84FF000043D
:1002F000019009E0192344EC403003F089FCE0B19F
:10030000142101A807F042FA00214FF0FF3003F05A
:1003100017FD4FF050435B689B01EBD403F070FC7A
:100320000028E7D003F074FC0028E3D1192345EC42
:10033000403003F06DFC0028E2D103F059FC0028A6
:10034000DED003F0E9FC0028DED1012101A807F08E
:100350001DFAD9E730B583B0FFF7BAFF05F0C2FC4C
:1003600000F0BAFB00F058FA002102240A4D0846BA
:1003700005F098F803F006FA01F044FC00234FF46E
:1003800080720649CDE90045054806F023FF07F0D5
:1003900025F8002003B030BD34F90020B8910020CA
:1003A000A50100200020704770B5094C1846214671
:1003B000BDF8105000F0FCFE0021402D2B462246D7
:1003C000BDE8704028BF4023084604F075BD00BF5B
:1003D0007CAC0020012906D11378C3F34113022B12
:1003E00003D000207047012070475378012BF8D1CB
:1003F0009388072BF5D1034B11461A461B8904F04D
:1004000047B900BF2094002008B5074B1B6803B90B
:1004100008BD064B186806F0EFFE054B1868BDE8EE
:10042000084006F0E9BE00BFA0F901206CF90020E9
:1004300024F2002008B5074B1B6803B908BD064B22
:10044000186806F07FFF054B1868BDE8084006F005
:1004500079BF00BFA0F901206CF9002024F2002030
:10046000F0B50F4D83B02C680CB103B0F0BD03267E
:10047000009601260B4A0C4F234601920B494FF47C
:1004800080720B4806F0A6FE4FF480722346CDE939
:1004900000670849084806F09DFE2E6003B0F0BDD5
:1004A000A0F901206CF9002024F20020BC9100206A
:1004B00059080020C4910020E10E0020704700BFC1
:1004C00008B50248097801F0EDFF00BFC89100208F
:1004D00008B5014801F0E6FFF89100200048704798
:1004E0002095002000487047FC9400200623024815
:1004F00080F83E30704700BF7C96002038B550B978
:100500004FF4417C194B1A4D1B681B886B801848AF
:10051000A5F800C038BD062825D8144B144D53F853
:100520002040204607F0E4FFC0B21F28864628BFBF
:100530004FF01F0E0EF1010C5FFA8CFC4FEA4C0CD1
:100540004CF4407C0028E2D02A460023601E013390
:1005500010F8011FDBB29E4522F8021FF7D80448AD
:10056000A5F800C0D6E7002038BD00BF6096002087
:10057000B0AE002000487047D494002010B5044667
:10058000052002F007FD0F4A631EA2FB001203EBD9
:100590009213B3FBF4F00330032807D9B0F5802F92
:1005A0000AD30948094BC3F8C80010BD4FF4803086
:1005B000064BC3F8C80010BD044B80080004C3F804
:1005C000C80010BDD34D62100000FFFF0000205096
:1005D0000A4B01381B68C0B210B440EA4320084CF3
:1005E00040F480706368DA03FCD4054A20615368E4
:1005F000DB03FCD45DF8044B1161704764F6002006
:1006000000002050084B01381B68C0B2074940EA7F
:1006100043204B68DB03FCD4044A0861536813F49D
:100620008033FBD11361704764F600200000205036
:100630000C4B84461B6801380833C0B20A4940EAB3
:1006400043204B68DA03FCD4074A08615368DB0592
:10065000FCD4BCF11F0F106A9CBFCCF1200C20FA17
:100660000CF0704764F6002000002050094B0A4A45
:1006700018680330400240F0FF005368D903FCD4EF
:100680004FF080730449106193608B68DB01FCD5E7
:10069000704700BF64F600200000205040F2FF10B9
:1006A000084B094A1B68033340EA43205368D903C7
:1006B000FCD44FF080730449106193608B68DB01B8
:1006C000FCD5704764F60020000020502DE9F04171
:1006D000314C86B0676817B106B0BDE8F0810621DD
:1006E000022002F087FA0621032002F083FA3A463C
:1006F0000121032002F09CFA2849294805F008FB53
:1007000080464FF44022022301214FF4803508F146
:10071000030608F10A0E4FEAC61C4CEA0E3C04928E
:10072000204A2CF0C04C4CF0804C00910592394688
:100730001A461B48C4F80080CDF80CC0029505F09D
:100740007FFB049B42466FF31D4343F4402339462D
:100750000493134802AB05F0B9FB052002F01AFC24
:10076000114AA2FB00139B0903F2E733A2FB032308
:100770009B09DA1C63B90121094BC3F8C850C3F8BF
:10078000D8601A680A431A60616006B0BDE8F0815B
:1007900092081504EFE700BF64F6002034950020AE
:1007A0000000205063881144D34D621010B5174CDF
:1007B000636853B322681649D01C400240F0FF0022
:1007C0004B68DB03FCD44FF08073086110488B60EA
:1007D0008368DB01FCD503680E4923F00103036045
:1007E0000B4805F011FB022002F05AFA0022022009
:1007F000114602F01DFA032002F052FA00220320F3
:10080000114602F015FA0023636010BD64F6002063
:10081000000020503495002008B50221042002F089
:10082000E9F90221052002F0E5F900220121042066
:1008300002F0FEF901210520002202F0F9F9BDE8DD
:1008400008404FF4E131014802F04ABA0080074005
:10085000464970B58C6914F0100434D1444A01340F
:100860008B69DD06FCD40B6802F8013B8B69D80666
:1008700001D4202CF3D1002004F038F840B3012239
:100880003C4B00201A6004F045F984425BD82246B4
:100890000020374904F01EF9002004F0D1F80020B0
:1008A00004F03AF81F2825D8002004F035F8024655
:1008B000002844D1304D2B7803F0FF04002B32D1B7
:1008C0000024204670BD002004F010F8002848D114
:1008D000284C2368002BF3D0002004F027F90021D6
:1008E000224802F0C5FA00232349244A0B702360F2
:1008F0001360E5E71022224D0020294604F018F885
:100900000028D7D02C46194A291893699B06FCD495
:1009100014F8013B8C421360F7D1174D2B7803F08C
:10092000FF04002BCCD0174B1E6806F097FD8642C3
:10093000C7DA00210D48297002F09AFAC0E71028A2
:1009400028BF1022D7E7002004F0E4F884420346D1
:1009500003D90A490A6801320A60002B9FDD1C4650
:1009600095E70122034B1A6099E700BF008007401A
:1009700010F90020A4F901206BFA0120E8F1002011
:1009800038F90020E0F1002038B506F067FD084C8A
:10099000084D2060FFF75CFF0028FBD12046296846
:1009A00006F0F4FE0028F5D106F058FDF1E700BF8F
:1009B00038F60020E096002038B50B68264D012B54
:1009C00038BF012300200C46B5FBF3F503F08EFF82
:1009D000002835D1312D94BF0125204B204888BFF8
:1009E000A3FB05351F4B88BF2D091D6002F0FAF9E6
:1009F000002004F09BF8002003F0E2FF2168184873
:100A000002F06EF96379A179012B1CBF023BB3FAA6
:100A100083F32279A1F1050002F1FF320CBF02231A
:100A20005B09042828BF0821012A8CBF0122022269
:100A30000B4802F0E5F9002003F058FF28B938BD53
:100A4000094B186806F0D8FBC4E7074B1868BDE8E7
:100A5000384006F077BC00BF006889091F85EB515C
:100A600000800740E09600206CF90020034B1868D6
:100A700009B906F0C1BB06F065BC00BF6CF90020E7
:100A800010B50C46D9B14FF6FF7399420FD0012132
:100A90000E4802F0EDF901220D4B04EB84041A70AC
:100AA00006F0DCFC0B4B00EB8400186010BD01214C
:100AB000064802F0DDF90022054B1A7010BD03480C
:100AC00002F0D6F9024B1C7010BD00BF0080074039
:100AD0006BFA0120E0F1002010B5594C204602F0DD
:100AE000B9FE00202378207019099F2B4FEA0312CA
:100AF000544BD2B28CBF3731303160789F2A197095
:100B00004FEA12118CBF01F1370201F130025A7025
:100B100001099F284FEA00124FF00000D2B28CBFAB
:100B20003731303199709F2A4FEA12116070A078E6
:100B30008CBF01F1370201F13002DA7001099F2800
:100B40004FEA00124FF00000D2B28CBF3731303183
:100B500019719F2A4FEA1211A070E0788CBF01F141
:100B6000370201F130025A7101099F284FEA001241
:100B70004FF00000D2B28CBF3731303199719F2ACB
:100B80004FEA1211E07020798CBF01F1370201F1B8
:100B90003002DA7101099F284FEA00124FF000007D
:100BA000D2B28CBF3731303119729F2A4FEA1211FD
:100BB000207160798CBF01F1370201F130025A7265
:100BC00001099F284FEA00124FF00000D2B28CBFFB
:100BD0003731303199729F2A4FEA12116071A07932
:100BE0008CBF01F1370201F13002DA7201099F284E
:100BF0004FEA00124FF00000D2B28CBF37313031D3
:100C000019739F2A4FEA1211A071E0798CBF01F18C
:100C1000370201F130025A7301099F284FEA00128E
:100C20004FF000008CBF37313031D2B29F2A997318
:100C30004FEA121194BF30313731E071D97310BDD2
:100C400058F9002074F90120F8B5124F124D3B6895
:100C50006A6804469A420E460CD154B1082C2546C7
:100C600028BF082516F8011B2846FFF7B1FC641BB6
:100C7000F4D1F8BD052002F08DF94FF4FA636A68EB
:100C800002FB0333B0FBF3F0FFF778FC6B683B60CB
:100C9000E3E700BFE4F1002060AC00202DE9F04163
:100CA000DFF874801B4D1746D8F800306A68044698
:100CB0009A420E460ED0052002F06CF94FF4FA630A
:100CC0006A6802FB0333B0FBF3F0FFF757FC6B6875
:100CD000C8F8003004F0800314F03F0408BF40243B
:100CE00063B1082C254628BF08252846FFF7A0FC3D
:100CF000641B07F8010BF4D1BDE8F081082C2546F0
:100D000028BF082516F8011B2846FFF761FC641B65
:100D1000F4D1F1E760AC0020E4F100202DE9F041CE
:100D20004E4F4F4E3B68726805469A420C460DD0B6
:100D3000052002F02FF94FF4FA63726802FB0333C7
:100D4000B0FBF3F0FFF71AFC73683B60C5F340009B
:100D5000C5F3800105F0010243181344C5F3C00731
:100D60003B445B0103F0200343EA420343EA800370
:100D700043EAC10343EA071343F081010820FFF768
:100D800027FC307E0330FFF753FC337EC7B21F4190
:100D9000012F1ED0022F09D0042F07D003F121000C
:100DA000FFF746FCFFB23846BDE8F081727E6AB3B9
:100DB000AA074CD41846FFF725FC737E002BF1D010
:100DC00000212020FFF704FC00210120FFF700FC98
:100DD000E8E7A80723D41846FFF714FC246820206E
:100DE0002146FFF7F5FB204607F0A4FA01463846F6
:100DF000FFF7EEFB290602D51A4B9B6AB360307BE6
:100E00000028D0D00021FFF7E3FBCCE71846FFF71E
:100E1000F9FB737E002BC5D0AB07C3D4D0E72020ED
:100E2000FFF706FC80463846FFF702FC07464046BF
:100E300007F06CFA474017F0010F14BF082701278D
:100E40000CB1C4F80080307EFFF7DCFBD2E7212034
:100E5000FFF7EEFB307EFFF7D5FBA3E7E4F10020C0
:100E600060AC002000000B40704700BF704700BF1F
:100E70000020704710B54024002122460A4807F0A0
:100E800069FA22460021094807F064FA002308495C
:100E9000084AC1F884300120C1F88030C2F884309B
:100EA000C2F8803010BD00BFE0AB002020AC0020B5
:100EB000BCAC002048AD00202DE9F0414B79FF2B60
:100EC0001ED18B790C46DBB9CB79CBB901251E49F4
:100ED0001E4FC1F88030C1F88430C7F88030C7F8A1
:100EE000843081F8893081F8885087F8893087F814
:100EF00088502579C5EBC5050935ADB2954203D9B2
:100F000000252846BDE8F081064694F80B80104B7A
:100F100004F1090183F8008003F022FBD7F8802058
:100F2000414602F0010207EB82124023304603F0F3
:100F30005DFB084BA27C304604F110011A7003F0EF
:100F40000FFB2846BDE8F08148AD0020BCAC002076
:100F500067FA012066FA0120CA0910B514D1402BA6
:100F600014D8274CD4F88030D4F88420013303F00F
:100F7000010393421BD1012384F88930214B186867
:100F800006F0E0F9012010BD402B01D9002010BD72
:100F90001D4CD4F884300133C4F8843094F8883080
:100FA000BBB1184B186806F0CDF9012010BDD4F87C
:100FB000802040230132C4F88020D4F8802002F041
:100FC000010204EB821203F011FB002384F8893044
:100FD000E7E70E4BD4F884201B6802F001029BB2B5
:100FE00004EB821203F002FBD4F88430D4F88020A2
:100FF00001339B1AB3FA83F35B0984F88830D0E796
:10100000BCAC002024F2002048AD0020BCAF002082
:101010002DE9F84F7F265A4C5A4DDFF878815A4F08
:10102000DFF87491DFF874A1D4F88420D4F880300C
:101030009A4266D0D4F884B00BF001039B01E25CC5
:101040007E2A13D1D4F880200BF1010B9345E6548E
:10105000F2D1286806F0D0F8D4F880305B45F8D09B
:101060000BF001039B01E25C7E2AEBD0D4F88430C4
:10107000DFF828E103F0010C04EB8C1CBCE80F0046
:10108000AEE80F00BCE80F00AEE80F00BCE80F00B0
:10109000AEE80F009CE80F008EE80F00D4F8843013
:1010A0000133C4F8843094F88930002B4FD149467D
:1010B000504600F089FDC8F8000006F0C7F9D7F8DF
:1010C0008020D7F88430D7F880009A42D8F80020E2
:1010D00000F00100494692B207EB801015D007F0EE
:1010E0008BF90022D7F880300133C7F8803087F8B9
:1010F000882006F099FAD4F88420D4F880309A42F7
:1011000098D1286806F078F88EE707F075F9D7F8D7
:1011100080301E4A0133C7F880301178D7F8842018
:10112000D8F8003002F001029BB207EB82120020D7
:1011300003F05CFA06F078FAD4F88430D4F8802012
:101140009A427FF477AF286806F056F86CE706F00D
:101150007DF9D4F880200E490132C4F88020D4F8FB
:101160008020402302F00102097804EB8212002063
:1011700003F03CFA002384F8893006F055FA96E72C
:10118000BCAC002024F2002048AD002066FA01200B
:1011900067FA0120BCAF002020AC0020E0AB0020AB
:1011A0000346012201481A70704700BF5495002081
:1011B0002DE9F04F03788BB083F080021F2A26D9E7
:1011C0000F4681460C4607F8013B1D2B26D8DFE869
:1011D00013F0D700CD00C400BC00B2009400790029
:1011E000250070006701620125002500250025000B
:1011F00025000401EC005001270132016600760150
:101200002500250025002500250025002A0000F0E6
:1012100011FD054628460BB0BDE8F08FFF234FF0C7
:1012200001150B70F6E700224A70427801F1020ABC
:10123000831C02F1FF38002A00F05C834FF00109A3
:101240001C464F46464611E0FFF728FA5246214613
:101250004046FFF723FD002E00F0538101372C4458
:101260002F44731E002E00F04F811E4614F8018B90
:1012700018F03F0516BF07350825ED0818F0800F58
:10128000E2D0FFF7F3F9524621464046FFF706FD4C
:10129000002E00F03E810137AA44A944E1E7FF2374
:1012A00045784B7001352D0445F0010505F1011518
:1012B000B0E7A74B1B78012B00F06C83FF234B702A
:1012C000A44DA7E7DFF8888298F80030012B00F0E2
:1012D000148300234FF0030BA1F80130CB7099F871
:1012E00004309B0757BFB9F802304BF4802B013311
:1012F0004BEA834B0BF101158CE7DFF85482431C5A
:10130000069398F8003090F802B0012B079300F193
:10131000030100F03D81BBF1000F07D1F3E3DA06D2
:1013200007D40131BBF1010B00F0F6800B78980770
:10133000F5D40531F6E700224178854B19734188D1
:101340001982818859826270BAE70026804B824DEB
:101350001E70FFF72BFA66705CE74378012B40F2B2
:10136000E68000234FF00215637053E74378012BAA
:101370004FF0FF3398BF0023DBB2784D637049E72D
:101380004278042A00F01083EF2A40F29A80F03A63
:101390000F2A00F29680DFE802F0AB9894949494C0
:1013A0009494949494949494A59FD0F80150002D13
:1013B00000F0C780052001F0EDFDB5EB500FC0F047
:1013C000FD8201221346DFF8888188F8012000227F
:1013D000C8F80430624D62701CE7D0F803304278E0
:1013E0008078CBB15F498B4228BF0B465E49C60768
:1013F0008D6A00F16882870700F1F282460700F1EA
:10140000A083870600F1A583060605D5D20903D07F
:101410008A6A521B9342FBD80023544D6370F9E64D
:1014200043784B4803F00301C3F3800201310023EA
:101430000176427696E7FF234B704378821C591E53
:10144000002B00F0578201201378013913F03F037D
:1014500003F107034FEAD30303F101034AD04D1C04
:101460001A441844F0D1050445F0010505F10115B1
:10147000D0E6407809F10201002864D0C51DED08CE
:1014800001352D0445F0010505F10115FFF7DCFBE1
:1014900000236370BEE60023354DA1F80130B9E6A4
:1014A0000520B9F8015001F075FD324BA3FB002374
:1014B0009B0C05FB03F3013BFDD100235DE7FF23FC
:1014C00050E74FF002156370A4E604232A4A2B4D1F
:1014D000C4F8022063709DE640220223284D6280FA
:1014E000637097E602220123264DA270637091E695
:1014F0003122F8E74C1C02F1090200F10900A3D1E6
:10150000B1E7FFF7CBF8A9E649EA074505F1011570
:1015100080E6FFF7C3F8BEE6069BCD1A2D0445F022
:10152000020505F101150023A4F8013072E601253A
:10153000074B1D70FFF7CAF80021134A2B461160B4
:1015400010E7FF2246E74FF48070104D9EE700BF82
:1015500060AC00200200060002000100020003004F
:1015600002000500C0C62D0000000B40020007006D
:101570000300010083DE1B4340420F00060002000F
:101580000400020003000200E4F100200200220037
:101590000023AA4DE21C04922B70BBF1000F00F057
:1015A000F9829A46CDE9017405930393894619F8A7
:1015B000016BB20740F1AD80B8F81070BAF1000FBE
:1015C00028D006F01103012B0C4608D187E0002F2C
:1015D00000F05C812B78013F002B40F066810E20EB
:1015E00009A9FFF79BFB0228F1D0034621464FF0E3
:1015F000000A012B40F0D682049C099A204640F84C
:10160000042BBAF1000F00F03281330600F1538150
:101610005346049016F01000B8F8107006F001025E
:1016200000F0A880D1F8013001F105090093B8F865
:101630001210A2B10C4607E0002F00F0DA802B78E0
:10164000013F002B40F0D58000213046FFF766FBBC
:101650000228F1D001280346214640F0A3824746E4
:1016600088463C8A05E0002C42D02B78013C002BB8
:101670003ED1304609A9FFF751FB02288446F2D03B
:101680007B690999012803EA010340F07B82009AF3
:101690009A4200F0EE80B8F1000F04D02B7808F1E8
:1016A000FF38002BDDD0B846CC461123029C019FA9
:1016B00006E0D60608D40CF1010CBBF1010B46D0B4
:1016C0009CF800209107F4D40CF1050CF5E7002FED
:1016D00000F0D5802B78013F002B40F0D0803046C1
:1016E00009A9FFF71BFB0228F1D00346214680E73A
:1016F0006146CC460346B846029C019F0998D8F83B
:1017000014201040009A8242DAD041F01001CBB28E
:10171000D6E7BAF1000F71D1D1F80130B40601F16A
:101720000501099340F18580C8F814304FF0000A94
:101730000123039A013203922A78002A40F087811C
:10174000BBF1010B7FF432AF8C46DDE90174012B54
:1017500000F04E81DBB20793049A069BD51BACEBDD
:10176000030345EA0345039A079B6270A37005F1E2
:1017700001154FE552B1BAF1000F28D04946059046
:10178000D7E7002F35D02B78013F93BB304609A90E
:10179000FFF7C4FA0228F4D00128034640F0028281
:1017A000360605D50499D8F8082041F8042B049191
:1017B0000498099A494640F8042B002204900592A7
:1017C000B7E7002F00F047812B78013F8BB900214C
:1017D0003046FFF7A3FA0228F3D00128034640F071
:1017E000E181370600F128810022494682460592B0
:1017F0009FE70346CC46019F029C61E70C46B8F880
:10180000107005E0002FF4D02B78013F002BF0D1B1
:101810000E2009A9FFF782FA0228F3D00128034617
:10182000214640F0BF81049A099B42F8043B049290
:1018300072E7B8F810A00F46544607E064FA01209A
:10184000002C50D02B78013C002B44D1304609A904
:10185000FFF764FA0228F3D001280346394640F026
:10186000A581300617D44FF0000A059361E7049074
:10187000D0E600220346B8464946059259E7CC46D1
:10188000D146019F029CCA46022319E7CC46B946BD
:10189000DDE90174F7E70498D8F808204FF0000A52
:1018A00040F8042BCDE9040343E7CC46019F4FF0F9
:1018B0000009029CE7E7D8F80830636004F10803E8
:1018C00004935346A6E6002A3FF4A6AD8A6A521B4B
:1018D0009342FBD8A0E53946DDE9017403468C4606
:1018E0004FF0000AECE63946A24603468C46019FBB
:1018F000029CE5E64FF002158CE40023AE4DB0F8F3
:1019000002B02B70BBF1000F00F0008190F804A032
:10191000B8F810201AF0020340F0A4801F46431DBF
:10192000009309AE0191009AB8F8104052F8043BB8
:101930000092099303E034B32A78013C1ABB314684
:101940005046FFF7EBF90228F5D001281BD1BBF177
:10195000010B07F10107E6D1019CB8F8106003E024
:1019600046B12B78013E2BB900210E20FFF7D6F9A6
:101970000228F5D04FF0030BFBB2C7F307226370C8
:10198000A270E070ABE44FF0030B019CFBB2C7F315
:101990000722F4E7D0F8023009A900200993FFF7E5
:1019A000BDF9002363708BE40623844A844D1068DC
:1019B0009288C1F80200CA8063702BE40023DFF82C
:1019C0000482052088F8013001F0E4FA6B1E03EB75
:1019D0005003B3FBF5F3022B38BF0223013BF6E4BF
:1019E00052083FF419AD8A6A521B9342FBD813E5A3
:1019F000BAF1000F00F09080B8F81080A14609AE4F
:101A00004446E04607E0002C00F0AB802B78013C18
:101A1000002B40F0A68031460E20FFF77FF9022808
:101A2000F1D00128C4464C4640F0BA80049B099A84
:101A300043F8042B04938FE60498D8F8082049460D
:101A400040F8042B00229A460490059271E68C46D9
:101A5000DDE9017434E6CC46B946DDE9017403469C
:101A6000CA462DE61AF0010F10D0164606E0002EE9
:101A700000F081802B78013E002B7CD10021504664
:101A8000FFF74CF90228F2D0012874D100220BF1A3
:101A9000FF3104F1040BCDE901940097C1465F4684
:101AA00014468B46A84609AEBBF1000F04D11AF0CC
:101AB000010F18BF4FF00E0AB9F8105004E0BDB185
:101AC00098F80030013D9BB931465046FFF726F9A2
:101AD0000228F4D00128034648D10999013447F877
:101AE000041B0BF1FF31BBF1000F3FD08B46DBE74E
:101AF0002246BB46009FD3B2ABEB070BC2F30722D3
:101B0000DDE901943BE74FF003150CE558464FF033
:101B1000030B0246034632E7059B002B3FF41CAE45
:101B2000B8F81060E04603E056B32B78013E3BBBAB
:101B300000210E20FFF7F2F80228F5D0C4460790E6
:101B40000AE692083FF468AC8A6A521B9A42FBD3B9
:101B500062E452093FF460AC8A6A521B9342FBD89C
:101B60005AE4C4464C4602230793F5E5BB46224699
:101B70001846009FBFE700224FF0030B1346FEE616
:101B8000C446F0E70346B8460846029C6146019FFA
:101B9000CC46B4E58C46CDF81CB0CDF80CB0DBE5F6
:101BA0000790D9E5CC46019F029C89E58C46DDE98A
:101BB00001744FF0000A83E564FA0120809200204E
:101BC0000800020060AC0020F8B504787F2C03D038
:101BD000BDE8F840FFF7ECBA0D4605F8024B447833
:101BE0004FF00217861C4C7054B129463046FFF75F
:101BF000DFFA013C074406EB104615FA80F5F4D1F4
:101C00003846F8BD38B50025084C0520258001F080
:101C1000C1F901226421064B2283A3FB0023DB0CC4
:101C2000013B257321616561636038BD60AC0020B4
:101C300083DE1B4303461B784FF001100B70704787
:101C400070B504460E4600F045FC394B9D7893F97B
:101C5000002005F00105D20F42EA4502224293F826
:101C600000C04ED093F90110CCF38012C90F42EAA4
:101C700041022242597833D0C1F38015CCF340128F
:101C800042EA4502224242D0C1F34015CCF3001291
:101C900042EA450222423DD0C1F30015CCF3C00216
:101CA00042EA450222422FD0C1F3C005CCF38002A4
:101CB00042EA4502224230D0C1F38005CCF3400213
:101CC00042EA450222422ED001F002020CF001014C
:101CD0000A4312EA040529D016B3164800F0E2FBC5
:101CE00040210625E60744BF4CEA010C83F800C0FA
:101CF000A20702D55A780A435A7000F0FDFB284625
:101D000070BD80210725EDE708210325EAE72021A2
:101D10000525E7E710210425E4E704210225E1E792
:101D20006FF00805E9E702210125DBE70121D9E78A
:101D300028F2002088920020014B0B44036070477A
:101D4000C0AF0020F8B5124C124DAC4211D24FF08A
:101D5000FF36002723686BB100F052FC0146204695
:101D6000FFF7EAFF66602772BFF35F8F0C34AC4267
:101D7000F0D3F8BD00F044FC01462046FFF7DCFF3D
:101D80006660BFF35F8F0834AC42E3D3F8BD00BF99
:101D9000849700209497002010B5044600F030FC92
:101DA00001462046FFF7C8FF4FF0FF336360BFF3E3
:101DB0005F8F10BD10B50446012000F02DFC034BD1
:101DC00003442360BFF35F8F10BD00BFC0AF00208E
:101DD0002DE9F04F2DED028B85B0EFF30583DBB2DB
:101DE000103B9A0818BF01224FF0010103F00300D5
:101DF00018BFAF4DAF4B08BFAF4D00EB820253F899
:101E0000226001FA00FB05F541539FEDA78B01907D
:101E1000C3F804B02EE0B388180440F19280B3797F
:101E2000002B40F0DC80B6F908100029C0F21D81BB
:101E3000736901EB410103EBC103D3E90247B7F139
:101E4000FF3F08BFB4F1FF3F0DD0019B05EB8301BD
:101E5000AB6A0A69D21AE31A934203D32B6A13EAD4
:101E60000B0F00D10C61284600F0D8FAA042B9410E
:101E7000C0F2FB80B6F90830C5F83CB0002B0093E7
:101E8000C9DBD6F8149003EB430A284609EBCA07CE
:101E9000D7E9024800F0C2FAA04271EB0801BADBB0
:101EA000B8F1000FC0F2C380D7E90431834A9342EE
:101EB00000F0ED807A88B6F9080092B242EA00405C
:101EC000984702460B4652EA030100F0B080002B0F
:101ED00080F2D180B4EB020E68EB030839F93A3096
:101EE000C7E902E8002B96DB716903EB430201EBC3
:101EF000C202D2E90270BE4578EB000C4FEA430201
:101F000089DBB4462CF8083F0BE031F93230A446A7
:101F1000002B0DDB03EB430001EBC0005A00D0E9BE
:101F20000270BE451A4478EB000001EBC204ECDA03
:101F300029F83A30009BACF80030B38818043FF51C
:101F40006EAF3369EFF3108272B6D3E8CF0F012181
:101F50000028FAD1C3E8401F0028F6D1BFF35F8FF5
:101F60004FF6FF74B0880023316900B2B480C1E835
:101F70008F3F82F310889842FFF651AF0746A9467B
:101F8000746906F1080807EB470E04EBCE03D3E9AA
:101F90000250B6F90830C446002B13DBB246009756
:101FA00004E034F936309446002B09DB03EB43069A
:101FB00004EBC602D2E90271BD4270EB0101F0DA16
:101FC0005646009FACF8007034F93E7024F83E305D
:101FD000002FD8DAB3794D46002B3FF424AF00230D
:101FE000B371B6F9083006F10808591C3DD01946FE
:101FF000776903E080465A1C3FF417AF03EB4302B6
:1020000007EBC200B0F802C01C461CF4004F9E460D
:1020100037F93230EED08C4280ED028B05D0A8F833
:102020000030318927F8321034817146E3E739F8FE
:102030003A3033813369EFF3108272B6D3E8CF0FB1
:1020400001210028FAD1C3E8401F0028F6D1BFF3D0
:102050005F8F7388316929F83A30009B73800023C1
:10206000C1E88F3F82F31088D5E640BF05B0BDECD4
:10207000028BBDE8F08F2846CDE9022300F0CEF9AF
:10208000029A039B10EB020E43EB010826E7084679
:102090000B69029198470028C9D00299D1E9002321
:1020A00011E700BFAFF30080FFFFFFFFFFFFFFFF5F
:1020B00000800B4044F6002000000B40A11C0020D3
:1020C0000B4808B50368EFF3108172B6D3E8CFCFA1
:1020D0000122BCF1000FF9D1C3E84C2FBCF1000F75
:1020E000F4D1BFF35F8F04F0E5F80020002108BDB4
:1020F00030F900202DE9F84F364C25692DB1BDE8A7
:10210000F84F0A213448FFF717BEDFF8E4800321B7
:10211000404600F071F90326C4F80C8000F070FA14
:102120004FF0504C2D4B267003442361DCF80030F7
:102130000F216370636961801D834FF00405A3F86C
:1021400078504FF00505A3F890504FF00605A3F81E
:10215000A8504FF007050E214FF6FF7208274FF0E9
:102160000A0EA3F8C0504FF001094FF00C0C4FF0CD
:10217000020B4FF0090A0D204FF00B05A3F8681170
:102180001749A280A3F808E1A160A3F848B0A3F81A
:10219000F0A0A3F82051A3F838C1A3F85001A3F888
:1021A0003090A3F86060A3F8D8701A800D4B3046C9
:1021B000C8F820700C49DC6000F088FA49463046C7
:1021C00000F06EFA094B0A211F640348BDE8F84F7E
:1021D000FFF7B2BDE496002030F90020C0AF002028
:1021E000FFFF100044F60020A11C002000200B403F
:1021F00000000B400146F0B50069EFF3108772B69E
:10220000D0E8CF5F0124002DFAD1C0E8454F002D62
:10221000F6D1BFF35F8FB1F902E04C690EEB4E0CC3
:10222000BEF1000F4FEACC0504EBCC0C3DDB605B4C
:10223000002648800869C0E88F6F87F31088BCF8D3
:102240000200CCE902230130C0F30E00012838BFA0
:102250000120059BACF80200CCF81030069B40EA48
:102260000E40CCF814300B69EFF3108272B6D3E84D
:10227000CFCF0127BCF1000FF9D1C3E84C7FBCF1EF
:10228000000FF4D1BFF35F8F8B886353A1F804E094
:102290000B69C3E88F6F82F310880122CB6809783D
:1022A00003F501538A405A60F0BD00230A69C2E871
:1022B0008F3F87F310884FF0FF30F0BD0346408911
:1022C000B0EB214F37DD58690A1402EB420210B51A
:1022D00000EBC2001C69EFF3108C72B6D4E8CFEFAC
:1022E0000122BEF1000FF9D1C4E84E2FBEF1000F5C
:1022F000F4D1BFF35F8F428889B292B28A4207D08D
:1023000000221B69C3E88F2F8CF31088002010BDBA
:1023100042F4004242800121002218699971C0E80C
:102320008F2F8CF310881C78DA68084602F5015369
:10233000A140596010BD0020704700BF2DE9F04357
:1023400006460D4683B0EFF30584E4B23CB1274B5B
:10235000586AA8421CD2002003B0BDE8F083244F85
:10236000D7F80C9097F80080484600F057F808F12D
:10237000040859F828301B1A301A65EB01019842FD
:1023800071F1000111DB20BF184B586AA842E2D35B
:102390009B6AB34203D3012003B0BDE8F083401B26
:1023A00018BF012003B0BDE8F08300F03FF886427B
:1023B00065EB01010029CADB0E4B3846CDE900343C
:1023C00032462B46FFF716FF011EC0DD074B5A6A47
:1023D000AA4208D39B6AB34203D30548FFF76EFFB6
:1023E000B5E7AA42F9D120BFF7E700BF00000B40D4
:1023F000E4960020911F002010B4054B054C064ABE
:10240000A04214BF1846581C5DF8044B00F07EB87B
:10241000F4F1002000800B409C9200200346416AAA
:102420000A46986A596A8A42FAD17047034B596A38
:102430000A46986A596A9142FAD1704700000B40E7
:1024400010B4174A536A9C46946A536A6345FAD19A
:10245000001959414FF0000228BF01220346CAB1BA
:102460000F4B596A4B1C08BF0B4608D04FF0FF3189
:102470000B460B48426A8A42FCD38A4207D1084A7B
:1024800002E0506A884202D1906A9842F9D35DF81E
:10249000044B7047024A526A9142EAD8EDE700BF06
:1024A00000000B400FB400B583B0049C074801F056
:1024B0007BF83CB105A92046019100F019FF0448C2
:1024C00001F072F8012000F02BFF00BFC092002045
:1024D000D0920020EFF3108072B6064BD3E8CF1FE6
:1024E00001220029FAD1C3E8412F0029F6D1BFF318
:1024F0005F8F7047CBAF00200023034AC2E88F3FB5
:1025000080F31088704700BFCBAF002070B58646BF
:10251000EFF3108572B6124CD4E8CF6F0120002E75
:10252000FAD1C4E8460F002EF6D1BFF35F8F4FF00B
:10253000010CC80801F007030CFA03F31EF800C0F1
:102540001CEA030608D14CEA030C0EF800C0C4E8EC
:102550008F6F85F3108870BD1046FFF7A3FF00BF93
:10256000CBAF0020F8B5EFF3108572B6234CD4E85A
:10257000CF7F0126002FFAD1C4E8476F002FF6D194
:10258000BFF35F8F9A4227D80126D70810F807E0DB
:1025900002F0070C06FA0CFC1EEA0C0F00EBD20747
:1025A0000DD125E04FEAD20E10F80EE002F0070C34
:1025B00006FA0CFC1EEA0C0F00EBD20718D0013211
:1025C0009342EFD24FF0FF300023C4E88F3F85F3F2
:1025D0001088984207DBF8BD0023C4E88F3F85F3DD
:1025E00010884FF0FF300029F5D00698FFF75AFF0A
:1025F0004EEA0C0E104687F800E0E5E7CBAF00206E
:10260000044A1078431CDBB2182B28BF1023137028
:10261000704700BFFC96002010B5054C82B0014603
:102620001F23182200940348FFF79CFF02B010BD3F
:10263000D4920020F8F100204FF0E022936843F09C
:1026400000539360704700BF0021044B03F1200248
:10265000C3E88F1F01339342FAD17047C0AF002007
:102660004FF0E0234FF08032C3F80024C3F8042475
:10267000C3F80824C3F80C24C3F81024C3F81424A6
:10268000C3F81824C3F81C24C3F82024C3F8242456
:10269000C3F82824C3F82C24C3F8302462B670474A
:1026A000012300F01F029340400941B1800000F176
:1026B000604000F56140C0F8803103607047024A15
:1026C000203042F82030704700E100E0F8B50D46B8
:1026D000EFF3108772B6124ED6E8CF2F0123002AEF
:1026E000FAD1C6E8423F002AF6D1BFF35F8F0D4B07
:1026F00000F110049B680C4A53F82430934203D035
:10270000994201D000F0DCFC064B9B6843F8245052
:10271000BFF35F8F0023C6E88F3F87F31088F8BDB3
:10272000C9AF002000ED00E0110100102DE9F04FCD
:1027300081468B46164683B0EFF3108372B6DFF8FE
:10274000D0A10093DAE8CF1F01230029FAD1CAE80B
:10275000413F0029F6D1BFF35F8F664B93F90040EC
:10276000002CC0F2A080644D04EB440705EB870801
:1027700098F8061009F110091970604BBF009B68AA
:1027800053F829006300411B2F292FD95C49884247
:1027900040F0A4801C445B4B02372F44043BDB1BFE
:1027A000C3F34A036FEAC3434FF421416FEAD343B3
:1027B00025F8241005EB840463804BF60153A380B5
:1027C000FF2348F00100E671C4F808B0A3714B4B39
:1027D0009B6843F82900BFF35F8F0023CAE88F3F4F
:1027E000009B83F3108803B0BDE8F08F20F0010E4A
:1027F0009EF80710B1422ED84FF42143EB53414BC2
:10280000B91C2944043B04375B1A2F44AEF1040180
:102810003D4CC91BC1F34A012143A8F80410C3F37E
:102820004A033A492343A8F802304AF6AA207346DD
:102830005B1B5B415843000D88F8076088F8060071
:10284000C8F808B048F00100CEF80010BFE7D17911
:10285000B1422ED996469EF906C00CEB4C02BCF153
:10286000000F05EB8202F2DA4BF601510EF1040281
:10287000A8F10407BF1AC7F34A076FEAC7476FEA10
:10288000D7478EF8064003EB0408204C05EB88037D
:10289000AEF8047045F82840998083F806C0DE71D0
:1028A000C3F808B093E700F00BFC124B93F900401B
:1028B00059E7724632F8041F490514D4491502310C
:1028C00002EB410101916FF00701C91B019F491BF8
:1028D0003944C1F34A0141F46041C9E7019300F072
:1028E000EFFB019B56E701F5FF1101F5FF511F3189
:1028F000E4E700BF6AFA01200097002000ED00E045
:10290000110100103097002000E0FFFF01488047D0
:10291000C9AF00202DE9F04F83B0EFF3108A72B6F3
:10292000744ED6E8CF2F0123002AFAD1C6E8423FE1
:10293000002AF6D1BFF35F8F6F4B00F110089B6840
:102940006E4A53F8285095423FD08D420C464AD0EB
:102950006B4FEB1B2F2B38D801214FEA50194FEA50
:10296000890909F1604909F5614900F01F0301FA7D
:1029700003F0D9F80030C9F8800000EA030BBFF378
:102980005F8FEFF30581C9B279B3884577D125F020
:10299000010EDEF808C0644505D17CE0D3F808C01C
:1029A000644532D09E469EF9062002EB4203002A7F
:1029B00007EB8303F2DA644500F08180BBF1000F7E
:1029C00020D0C9F88001C9F800004B4B9B6843F840
:1029D0002850BFF35F8F0023C6E88F3F8AF310882B
:1029E00003B0BDE8F08F1546EFE725F0010EDEF8E5
:1029F00008C06445D7D19EF906407346002C08DA1A
:102A0000154666E0C9F88000DFE793F90640002C20
:102A100056DB04EB440C07EB8C0CDCF8082061005F
:102A20009A609CF80720DA719CF90620002A9A71B6
:102A30005DDBBCF80420520504D502F5FF1202F557
:102A4000FF521F32521502F1020C4FF0040E0C22FD
:102A500012FB04E202EB4C026FF0070C3A44ACEBC1
:102A6000030C6244C2F34A0242F460429A80254B4E
:102A700021441A7807EB81011C708A719EE7CDE929
:102A8000000100F01DFBDDE9000125F0010EDEF87C
:102A900008C0644587D19EF906407346002CB8DA19
:102AA000194A1A4CD21A083AC2F30A316FEA015194
:102AB0006FEA115144EA5202DA8099807EE7734648
:102AC0000029EDD1FF228EF806204BF60152AEF818
:102AD00004200C4C4AF6AA2294F800C01946C91BDF
:102AE00049414A43120D83F806C0227066E74BF64F
:102AF0000152BBE7C9AF002000ED00E0110100105A
:102B0000009700206AFA01203A97002000F8FFFFA2
:102B10004FF0FF0C20F0030303F1604303F564431F
:102B200000F003001A68C0000CFA00FC22EA0C0254
:102B300081400A431A607047F0B5EFF30585EDB2A6
:102B4000EFF3108C72B62649D1E8CF2F0123002A6B
:102B5000FAD1C1E8423F002AF6D1BFF35F8F214E80
:102B600040F0010EB4684AF6AA2354F825701E4AB4
:102B70000446A41A644163431B0D77455BB21BD026
:102B800092F906409C421CD092F912409C4223D0FC
:102B900092F91E409C4221D092F92A409C4208BFE3
:102BA00003240FD0114A0024157813708571C1E8F1
:102BB0008F4F8CF31088F0BDB2680D4C42F8254061
:102BC000F0E7002404EB440402EB8402FF24947138
:102BD0004BF601549480E5E70124F3E70224F1E782
:102BE000C9AF002000ED00E0009700206AFA012044
:102BF0001101001010B44FF480740C4B53F82020D6
:102C000003EB8003C00082F0400200F1804003F536
:102C1000805C02F0C00200F5203003F54053CCF890
:102C2000002041601C605DF8044B70470480034045
:102C300010B4084CC90041EA820154F8202004EB8A
:102C40008003514003F5805301F00C015DF8044B03
:102C5000196070470480034030B44FF0000343EC28
:102C6000440043EC400005254FF480740B4BC20038
:102C700053F8201003EB800081F0400102F1804303
:102C800003F5203301F0C00200F5805100F54050FB
:102C90000A605D60046030BC704700BF0480034080
:102CA00010B44FF480711F240C4B53F8202003EB19
:102CB0008003C00082F0400200F1804003F5805C98
:102CC00002F0C00200F5203003F54053CCF800209C
:102CD00044605DF8044B1960704700BF04800340F6
:102CE000F8B5054606200E4600F054F9002842D0FB
:102CF000354A3648954214BF4FF080624FF000626B
:102D0000334B344902601A608C6832EA0404FBD108
:102D10002D4B4FF48071EB1AB3FA83F32E4A5B0903
:102D2000062022F8131000F035F9C300B3FBF6F3C8
:102D30000133DA0920D1402601216962AA622F6B92
:102D4000FB0722D42B46002253F82C1F062003F544
:102D5000805422602F6300F01DF940F201310322FC
:102D60008000B0FBF6F0EB6A83F0700303F07E03A3
:102D700023602963AA64F8BD4FF6FE718A421BD90D
:102D800022464FF6FF71154ED7E740F2013205F5A6
:102D900040531A636B6AAC6A062004EB831400F09C
:102DA000F9F80F4BA402A3FB0023DB0A0021B4FBBC
:102DB000F3F0FFF745FBC5E7C3F34503114603EB0B
:102DC00082161A46B9E700BF008007400020024083
:102DD000003002400000024060F90020C0FF3F00C8
:102DE000757B2B8F044A054B904214BF4FF08060D7
:102DF0004FF00060186070470080074000200240DC
:102E0000013A0539D200F8B5054642EA411443B10A
:102E1000A3F10103B3FA83F35B0944EA830343F0AC
:102E200002042E6BF3070AD42B4653F82C2F624072
:102E300002F06E0203F580531A602E63F8BD40F273
:102E4000013205F540531A636B6AAF6A062007EB3F
:102E5000831700F09FF8054BBF02A3FB0030C00AA8
:102E60000021B7FBF0F0FFF7EBFADDE7757B2B8F66
:102E7000F8B5066B0446F3070D460AD4234653F80B
:102E80002C1F694001F0010103F58053196026638E
:102E9000F8BD40F2013200F540531A63636AA76A35
:102EA000062007EB831700F075F8054BBF02A3FB64
:102EB0000030C00A0021B7FBF0F0FFF7C1FADDE7F0
:102EC000757B2B8F00EB400C4FEA8C0C0CF1804C87
:102ED0000CF5803CF0B51646DCF80420051FB2F571
:102EE000803F38BF4FF48032EDB238BFCCF80420B9
:102EF000012D2AD94FF40067254C0CF5405217607C
:102F000054F82020B2B9DCF80020012D82EA4612E4
:102F100002F0E0020CF5805632602AD94FF40061CD
:102F200044F820304FF480330CF500521160CCF897
:102F30000430F0BD6769B7FBF2FE0EF1010E0EEB37
:102F40004E0EBEF1030EFCD2DDE70129D2D10324DF
:102F50000CF540521460DCF80820D207FBD5DCF8F1
:102F600000200B4C82EA461202F0E0020CF580567B
:102F700032600122DCF800504D4005F00305356059
:102F800002FA01F1DCF808200A42FBD0C6E700BFD4
:102F9000FCF10020014B53F820007047FCF10020A9
:102FA00070B4039D04682D0345EA03451B4B002CB8
:102FB000B3FBF1F3B2FBF3F61FDB194A194B904256
:102FC00014BF4FF480424FF40042174C1A6003F5CF
:102FD00080531A60A36832EA0303FBD1212200F573
:102FE00040530433016086601A600268002AFCDAEC
:102FF0000822C5601A6070BC7047036803F03F0385
:103000008B42DAD18368C3F30B03B342D5D1C368D3
:1030100003F4EE23AB42D0D1EDE700BF001BB700B5
:10302000008005400020024000000240012300EB28
:103030004000800000F1804000F584104160036092
:10304000704700BF0023DB8A002242E800F25202F0
:1030500001D4102118470421184700BF034AD2F8B1
:103060002838002BFBD0BFF35F8F704700000E4065
:103070000021044B044ABFF35F8F43F8041B9342C3
:10308000F9D170470C080E402C080E4010B44FF4D4
:103090008D704FF42A64064A064B07491460D060CD
:1030A00019605368002BFCDA5DF8044B704700BFD1
:1030B0000080044000A0044000B0FA00704700BF48
:1030C00008B50148FFF7EEF9F092002038B5054C3D
:1030D000054DAC4204D254F8043B9847AC42FAD3B5
:1030E00038BD00BF94970020D497002010B4074843
:1030F000074C084B084A094904601A608B6832EA99
:103100000303FBD15DF8044B704700BF0020024071
:103110007F3BEFEF00300240F6FFF3030000024078
:10312000044BDB6CB3F5004F03D14FF48022024B0C
:10313000DA64704700001150002011504FF0E02277
:10314000044BD2F8881D0B43C2F8883D10EE3004C2
:10315000704700BF030330006FF06041044B054A25
:1031600019609368DB4333F06043FAD1704700BFC6
:10317000003002400000024010B545F25320FFF736
:1031800061FFBDE8104003460420184710B545F222
:103190005320FFF757FFBDE81040034601201847B2
:1031A000FFF752BA70B51449144C154D641AA610A5
:1031B000442E324628BF44222846920005F01CF9CE
:1031C000B4F5867F13D80F4AC6F1440112D02B19EB
:1031D000480803EBC000C3E9002208338342FAD158
:1031E000CB0704D521F00103334445F82320064BD7
:1031F0009D6070BD4323F8E700000010100100102F
:10320000000000201101001000ED00E0002370B567
:103210002B4C82B0C4F88430FFF738FF0122294BD1
:10322000DA63636C012BFCD10321264A244B116322
:103230009C6B012CFCD10226052521460523224A40
:1032400022480096FFF7ACFE21462B46204A214833
:103250000095FFF7A5FE0022042031461E4BFFF724
:1032600031FE2146284600221C4BFFF72BFE002290
:10327000082011461A4BFFF725FE002209201146AF
:10328000174BFFF71FFE002206201146134BFFF7D6
:1032900019FE0022114B07201146FFF713FE0420F0
:1032A000FFF778FE00240F4BA3FB0035AD0CE0B216
:1032B00029460134FFF7BAFE062CF8D102B070BDE2
:1032C0000000014000300140002F68590000054017
:1032D000008C864700800540001BB70080D1F008B5
:1032E000006CDC0283DE1B4300B9704700F01AB9A2
:1032F00010B5094B84B01C684CB1034600914FF0E7
:10330000FF3203A90548A047012004B010BD00F01A
:103310004BF9204604B010BD3CF60020B931002026
:1033200000BEFDE708B5FFF7FBFF00BF38B5064C50
:10333000064DFFF7CBFEAC4204D254F8043B98474D
:10334000AC42FAD338BD00BFD4970020E4970020E8
:103350000368084611461847437D2DE9F04781462A
:103360000F461646002B43D0002A3BDD037D00208C
:103370004D1E014615F8012FDFF884800A2A01F15D
:1033800001040ED0A6421CD02B782146A3F10D03D8
:10339000B3FA83F315F8012F5B090A2A01F101043E
:1033A000F0D1002BEED18142A1EB000138441BDCAF
:1033B00002214046D9F800309847A64208D020465E
:1033C000E2E7864204DD311AD9F8003038449847E4
:1033D000374417F8013CA3F10D03B3FA83F35B09FB
:1033E00089F81430BDE8F087D9F800309847DFE756
:1033F0003846D9F800301146BDE8F047184700BFFD
:10340000C89500202DE9F04782B00D4692469946B6
:103410000746FFF70BF84FF0FF366FF000442F4AD6
:10342000821841F10003964274EB03013CBF32461F
:1034300023462B4805F0DCF86B1C804603D1384648
:1034400005F056F80546274B274E1C68274BB9F167
:10345000000F18BF1E46B4B1BAF1000F1AD1DFF841
:10346000909001E0246974B12368002BFAD0D9F858
:1034700000300BB19C42F5D120462A463946B04770
:103480002469002CF0D1B8F1000F1FD1284602B0FA
:10349000BDE8F0874FF00A0ADFF8549002E0246993
:1034A000002CF0D02368002BF9D0D9F800300BB1F4
:1034B000A342F4D12A4639462046B047012220468D
:1034C0000DF107018DF807A0B047E8E7044805F0C3
:1034D00021F9284602B0BDE8F08700BF40420F0046
:1034E0008C9700202CF2002021320020293200206D
:1034F00034F200200A4A13684BB1834202D109E03A
:10350000984207D003F110021B69002BF8D101B1DA
:10351000106070470029FCD1036913600161704796
:103520002CF20020F0B583B006468DF80700FEF7B8
:103530007DFF4FF0FF356FF00044174A821841F1CC
:103540000003954274EB03013CBF23462A4613480F
:1035500005F04EF8124B07461C689CB1114D01E076
:1035600024697CB12368002BFAD02B680BB19C42F4
:10357000F6D1204601220DF10701FFF7EDFE246987
:10358000002CEFD117B9304603B0F0BD034805F069
:10359000C1F8304603B0F0BD40420F008C970020C8
:1035A0002CF2002034F2002038B5044604F0A0FFCD
:1035B000012305461A4620462946FFF723FF084BFC
:1035C0001C682CB163682BB198472469002CF9D191
:1035D000284638BD2469002CF4D1284638BD00BFE8
:1035E0002CF20020B1F1000C1DDD0F4A0F4B1268C8
:1035F00030B5D31AB3FA83F30D240D4D5B09411E88
:1036000035F913E08C4411F8010F864506D0936913
:103610009B06FCD461451060F5D130BD93699D06D1
:10362000FCD41460F3E7704768F90020008007407D
:1036300060F90020224BB1F1000C10B41C682EDDA3
:10364000034600201F4A591E12689369DB0617D4EF
:1036500001309369DB06FCD41368844501F8013F0F
:10366000F3D14CB150211346916353F8342F02F03B
:10367000380203F580531A6060465DF8044B7047CA
:103680004CB150211346916353F8342F02F03802A5
:1036900003F580531A6078B15DF8044B70475CB154
:1036A000084B50211A681346916353F8342F02F0E7
:1036B000380203F580531A606FF00200ECE700BF98
:1036C000ECF1002068F90020054B1B6833B10021A4
:1036D000044A05481268006891631847704700BFA4
:1036E000ECF1002068F90020F0F10020024B1A688C
:1036F00093691B07FCD4704768F90020F8B51C4F8C
:103700001C4D3A681C4EAA4214BF212522250446AE
:10371000D6F800C018B1BCF1000F10D0F8BDBCF154
:10372000000FFBD0014690632846FEF7B9FF2846FC
:103730001249FFF7EFF8124B34601C60F8BD0B46DE
:103740000F4A0E49306028461360FEF7BFFF012183
:103750002846FEF7A5FF3A6850211346916353F8B7
:10376000342F02F0380203F580531A60F8BD00BF11
:1037700068F9002000800740ECF100209935002016
:10378000F0F1002010B50E490E4C0F480F4A104BB7
:10379000007821600020022112781B78FFF72AFAB6
:1037A00002210120FFF726FA4FF4E1312068FFF7EC
:1037B00097FABDE8104001210648FFF79BBE00BF05
:1037C0000000074068F900203C0200103802001099
:1037D000340200104897002070B5104E0D4630603E
:1037E000101E1C4606DB10F0020F0CBF02210B213D
:1037F000FFF700FA002C07DB14F0020F0CBF0221C8
:103800000B212046FFF7F6F929463068FFF768FAE2
:10381000BDE8704001210248FFF76CBE68F9002046
:103820004897002000B545F247308BB0FFF70AFCFF
:1038300001220346092101A89847DDE90332044922
:1038400012BA1BBAC1E900230BB05DF804FB00BF3C
:1038500008F900200346024A03CA186059607047FD
:1038600008F9002070B500F033F90C2340261B4CFA
:10387000FF22A3670E201A49FEF758FF194B324664
:103880000021184604F066FD034600210125802032
:10389000154A58849A60843A5D701E831E87596069
:1038A000C2F88410C2F8801002F58072DA60DA6221
:1038B000803A83F8211083F83B1059629A624FF0E6
:1038C000005604F041FF4FF480320849084B25644C
:1038D0002846E664C4F89010DA6470BD0000115008
:1038E0001187002038F200208400105010D0010011
:1038F0000020115001210E20FEF7D2BE0022024806
:10390000114600F005B900BF58F20020044B1970B1
:1039100021B14FF40032034BC3F89020704700BF31
:1039200068FA0120002011500B785B0602D14B7819
:10393000052B00D070474B88014ADBB213607047FB
:1039400000001150CB782DE9F04103F0030EBEF1D9
:10395000010FC3F301005DD0002791F802C0354C80
:103960000CF07F035E00898806EBDC1204EB421248
:103970004FEADC15D076C1F30A0185F001005070E2
:1039800082F802C01183D77018B2DA008DBB2A48C2
:10399000043204EB831C02EB0008CCF808801750BB
:1039A0008BB3264ADB001A44CCF80420244B3F3169
:1039B0001A6821F03F01BEF1020F08BF490011440F
:1039C0001960204B771904EB47179942FA602CD8FD
:1039D0002E4404EB4613D97E82F0A04282F480127A
:1039E0005B6842EA816242F000421A600120BDE851
:1039F000F081DFF844C004EB83186244C8F8282043
:103A00004CF830704BB900220F4904EB4513D960D4
:103A10005A60EBE70020BDE8F081DB0003F1A04332
:103A200003F58013C8F82430C0E7FFF749FBFA68B4
:103A3000CEE700BF38F20020800010500400105084
:103A400040F60020FF0F10500001105004F07CBE23
:103A50008C4608B5114607481A460CF07F034FEA1A
:103A6000DC1C0CEB430C00EB4C1000F051F8012077
:103A700008BD00BF38F20020CB0911F07F0103D14F
:103A8000064AC3F102009066054803EB41034FF478
:103A90000062002100EB431005F068BA00201150CD
:103AA00038F2002011F07F0300D17047002210B4DB
:103AB000C809064C00EB430004EB40136FF40061AF
:103AC00018465DF8044BDA7005F050BA38F2002061
:103AD0004FF0805209480A4908B50A4B02600A6053
:103AE0009968C94311F08051FAD14FF480520648C9
:103AF00004F030FC0922054B5A6708BD0020024043
:103B00000030024000000240000010500000115040
:103B100000234FF0010C10B580F81AC08282C382D6
:103B20000161044605F0F4F920B14FF40032074B6F
:103B3000C3F89020204605F0FFF910B10123237748
:103B400010BD2046BDE8104005F032BA00201150EB
:103B50002DE9F04100241D4E054623463278DFF85A
:103B600078801B4F0DE03B6813EB441325D0DB68D6
:103B70002846984732780134E4B2911CA14223468A
:103B800006DBA242A3EB0203EDD808EB4313EEE7FA
:103B9000104C54220021204604F0DCFB4FF0FF3390
:103BA000251D6360C5E90133EB6004F11400202298
:103BB000BDE8F041FF2104F0CDBB4FF0E023D3F886
:103BC000F03DDB0700D500BEBDE8F08165FA0120BD
:103BD000D4AD0020ECAF0020E8950020704700BF76
:103BE000704700BF0020704700207047704700BF3B
:103BF000024B187800F00100704700BFECAF0020C6
:103C0000024B5878003818BF01207047ECAF0020F5
:103C1000024B1878C0F38000704700BFECAF002063
:103C20002DE9F047DFF8E8A09AF80030FF2B02D02A
:103C30000120BDE8F0870E4600293ED00021542225
:103C40000746294804F086FB0022284C284B2046D2
:103C50001A70FEF7A1F8274B27481C60274CFEF787
:103C6000A9F8204602F002F8254A264B264D14609A
:103C700063B32846FDF794FA244B2A781860002491
:103C8000DFF890902346DFF884800EE0D8F800300B
:103C900013EB441311D05B687BB198472A78013449
:103CA000E4B2911CA142234612DBA242EED89B1A39
:103CB00009EB43135B68002BEFD14FF0E023D3F8FF
:103CC000F03DDB0700D500BE0020B2E72A78D6E73A
:103CD000314638468AF80070FFF7C4FD0028ECD062
:103CE0003846FFF707FEA3E7ECAF0020E4AF002063
:103CF00069FA012040B000207497002060970020EE
:103D000044B000207110002065FA0120D4AD0020DD
:103D10007C970020E895002008B5074B1B78FF2B07
:103D200007D0064B186801F0D3FD80F00100C0B247
:103D300008BD002008BD00BF7C97002044B00020D3
:103D40002DE9F04FDFF8C8928BB099F80030FF2BC7
:103D500000F0F180A84CA94DDFF8B0A2DFF8B4B2B2
:103D600026687369EFF3108272B6D3E8CF0F012192
:103D70000028FAD1C3E8401F0028F6D1BFF35F8FB7
:103D8000B261304607A901F0BFFD00237269C2E8A5
:103D90008F3FB36983F31088002800F0CC809DF832
:103DA0001D30013B072B00F27D83DFE803F0A7B154
:103DB000959D8E350A04089B002BD1D00998984711
:103DC000CEE79DF8201001F07F0605EB460000EBE2
:103DD000D11090F8343023F0010380F8343090F89B
:103DE000343023F0040380F83430002E00F0A68035
:103DF000037D9AF80020934280F09380804A1268F5
:103E000012EB431300F090809E699DF82120099BDE
:103E10009DF81C00B047A3E79BF80030002B00F092
:103E200083809BF80030013BDBB28BF800309BF8BD
:103E3000003003F0FF00002B92D1704F9DF81C80E2
:103E40003B7843F001033B7097F8343060F3000394
:103E500087F8343097F8343060F3820387F83430D1
:103E600097F8353060F3000387F8353097F8353030
:103E700060F3820387F8353000F06AFC9DF820304B
:103E800003F06002602A6CD0402A7CD003F01F034C
:103E9000012B00F0C180022B00F08180002B60D14B
:103EA000202A00F0E981002A5BD19DF82130092BFE
:103EB00057D8DFE813F0B001A2015600C101560047
:103EC00095016B0156006001F4002B78D9077FF54E
:103ED00047AFFCF7AFFA43E7EB78DA077FF540AF7F
:103EE0000898FFF77DFE3BE72B78D8077FF538AFC2
:103EF0002878C0F3C000FCF787FA31E79DF81C0072
:103F0000FFF726FE00F01AFC9DF82030AB7027E783
:103F10009DF81C00FFF71CFE00F010FCFFF766FE8A
:103F20001EE7901C984211DA4FF0E023D3F8F03DE1
:103F3000DC0700D500BE0BB0BDE8F08F099B9DF8F3
:103F400021209DF81C0000F017FC09E79B1A2D4A60
:103F500002EB431358E7FCF7C9FA0246002840F089
:103F600082814FF0E023D3F8F03DDE0700D500BE9C
:103F70009DF81C000021FFF77FFD80219DF81C00AB
:103F8000FFF77AFDECE6204800F0E2FB0121404615
:103F900008AAFCF71FFA00287FF4E2AEE8E79DF8D4
:103FA000241011F0700FDCD101F07F0607EB460002
:103FB000164B00EBD1101B78007D760001969842DD
:103FC0004FEAD116009659D39E1C8642C0F26681F4
:103FD000C01A0C4B03EB4016002A00F06381706995
:103FE00000F0B6FB01214046736908AA98470028F3
:103FF0007FF4B6AEBCE700BF44B00020ECAF0020B9
:10400000D4AD0020E8950020A502002065FA01202B
:104010007C97002069FA01209DF824300F2BA7D847
:10402000AE4A3B441B791278934232D3911C994299
:104030009EDBAB4E9B1A06EB4316706900F088FBC3
:1040400001214046736908AA984700287FF488AE8A
:104050009DF8203013F060068AD19DF821300A3B8C
:10406000012B85D800F074FB9DF821300A2B00F05D
:10407000F281404608A900F0F1FA71E6994B1B68FD
:1040800003EB4016002A00F00D81002E3FF470AFC4
:10409000A5E7944A166816EB4316CED168E77B78FD
:1040A0009DF822609E4200F04F817B78002B40F00B
:1040B000BE817E70002E00F04581701EC0B2FCF7FC
:1040C00015FA0346002800F05F814278022A40F08A
:1040D0005B81C17903F10906C1F340121201C1F3FA
:1040E000801142EA41123146387820F03000024314
:1040F0003A705A88CDF80C809A180192019B8B4235
:1041000040F2A4814A780B2A00F0AF810123042AEF
:1041100040F03A810026019A0096521A92B2029219
:104120006E4A049312781DE06E4B1B6813EB461821
:1041300000F02A81029AD8F8103003980591984728
:1041400008280246059906F1010303D90298904216
:1041500080F0FF80DEB2614B00961A78931C9E427D
:1041600000F31281009BB242A3EB0202DCD85C4B4D
:1041700003EB4218DEE77B7840468DF81A300DF1EC
:104180001A02012308A900F083FAE9E5BDF822002C
:10419000030A013B020AC0B20E2B3FF6E9AE01A1B1
:1041A00051F823F08942002025410020C54200201B
:1041B000413E0020413E0020A74200202541002032
:1041C000413E0020413E0020413E0020413E002073
:1041D000413E0020413E0020413E00207B42002025
:1041E00008A800F0BBFA40469DF82210FFF786FBB6
:1041F0003B7843F002033B70B2E5BDF82230012B5F
:104200007FF4B6AE3B78404623F0080308A93B7024
:1042100000F024FAA4E540463B789A0802F0020236
:10422000C3F340131343ADF81A300DF11A02022301
:1042300008A900F02DFA93E5BDF82230012B7FF498
:1042400097AE3B78404643F0080308A93B7000F066
:1042500005FA85E5022A3FF47EAEFFF7C5FC02466B
:1042600000283FF485AE4046538808A900F010FAB4
:1042700000287FF475AD7BE69DF824300F2B3FF6C8
:1042800077AE164A3B441B79127893421DD2154AE9
:10429000166816EB43167FF4A2AE69E6002A7FF497
:1042A00067AE00269DF8212002F0FD03012B1BD0F4
:1042B000002A7FF456AE019B009A3B44134493F8C6
:1042C00034304046C3F34003ADE7911C9942FFF6FA
:1042D0004FAE034E9B1A06EB431680E665FA0120AB
:1042E000E8950020D4AD0020BDF82230B3B9012AF2
:1042F00099F8000000F08680FFF7BEFB019B009A52
:104300003B44134493F8342042F0020283F83420F3
:1043100093F8342042F0010283F83420002E3FF459
:104320001FAD706900F014FA7369012108AA4046B4
:104330009847002000F00CFA97F83530DF073FF57A
:104340000FAD96E6FFF752FC404608A900F086F94B
:1043500006E5049B012B00F09E80002B00F08A8074
:10436000002091F8028005E08CF804605FFA80FC80
:1043700063457FD908EB000C57FA8CFC9CF804E0ED
:104380000130BEF1FF0FEFD04FF0E023D3F8F03D46
:10439000DA0700D500BE4FF0E023D3F8F03DDB078D
:1043A00000D500BE00237B70E2E5FCF7E3F802468F
:1043B00000287FF458AFDBE5FCF790F802460028B0
:1043C0003FF4CFAD4046122308A900F061F9002860
:1043D0007FF4C6ACCCE5FFF705FC024600283FF4AD
:1043E000C7AD4046137808A900F052F900287FF4C1
:1043F000B7ACBDE5BDF82410FCF780F802460028F4
:10440000EFD1B5E50293FFF74DFB019A009B3A44CB
:104410001A4492F83410029B63F3410182F834107D
:1044200092F8341063F3000182F8341076E700212B
:104430004046FFF76BFA4046FFF708FBBB78404663
:104440000093FFF785FB009BBB7032E6DDF80C8024
:10445000FCF706F878E74046012308A90DF11A0297
:104460008DF81A6000F014F97AE40A78CB781144D8
:104470004A784CE6334610480492029101F0BAF8AB
:104480000E4B049A02991B781144009A023393420E
:10449000BFF634AE78E7D8F810C00948844508BFA5
:1044A00002235DE74FF0E023D3F8F03DDB077FF513
:1044B00057AC00BE54E400BF00B0002065FA0120F4
:1044C000014B00202DE9F84FDDF82880002A3FD06D
:1044D0000C461E4615464FF0000B1F4FDFF87C9030
:1044E00017E0204699F8021001F052F8F8B1214681
:1044F0005046FFF727FA08B3A3780BF1010BDA094E
:1045000016BF0B9A88F8003013702378AB451C4413
:104510001ED06378052B11D1E17801F00301B1427F
:104520000CD1A37897F800A013F0700FD9D04FF0FA
:10453000E023D3F8F03DDA0700D500BE4FF0E023CA
:10454000D3F8F03DDB0700D500BE0020BDE8F88FB2
:104550000120BDE8F88F00BF7C970020ECAF002061
:1045600038B50E4B1D788B7813F0700F08D04FF0D4
:10457000E023D3F8F03DDB0700D500BE002038BDB6
:10458000074B0C460846997801F002F80028EED057
:1045900021462846BDE83840FFF7D4B97C97002073
:1045A000ECAF00200B46064A06481168DA0934329F
:1045B00003F07F0302EB4303184400F0A3BF00BFE6
:1045C00040B00020ECAF00200B46064A06481168B8
:1045D000DA09343203F07F0302EB4303184400F09E
:1045E000BBBF00BF40B00020ECAF002010B5194C9D
:1045F00001F07F0E04EB4E0404EBD11494F834C0A8
:1046000015481CF0010F04F13004007808D04FF079
:10461000E023D3F8F03DDA0700D500BE002010BD3E
:1046200094F804C04CF0010C84F804C0FFF710FAB1
:104630000028F4D14FF0E021227960F300022271CA
:10464000227960F382022271D1F8F03DDB07E5D5D3
:10465000E3E700BFECAF00207C97002030B50B4CA7
:104660008C46A6460546086849680023AEE8030064
:104670009CF800102846C943C4E90233BDE8304025
:104680001A4601F08001FFF7B1BF00BF9CAE0020C9
:104690002DE9F041274F4FF00008BE468C460646F4
:1046A00008684968BA60AEE80300A7F80E801546AE
:1046B000BCF80620934228BF1346BB819AB11C4622
:1046C0002BB3DDB197F90030402C28BF4024002BDC
:1046D00028DB414623463046174AFFF787FF68B17B
:1046E0000120BDE8F0819CF800101346C943304614
:1046F00001F08001FFF77AFF0028F1D14FF0E023AD
:10470000D3F8F03DDB0700D500BE0020E9E71A46EC
:10471000397801F0800123463046FFF767FF002813
:10472000DED1EBE722462946034803F065FE8021EF
:10473000014AF0E79CAE00205CAE00200022034B53
:10474000C3E90022C3E902221A6170479CAE00202F
:10475000014B1861704700BF9CAE002030B4024688
:10476000044C0025234600685168C4E9025530BC5A
:1047700003C370479CAE002070B53C4CC909227839
:104780000646B1EBD21F1D4682B017D053B14FF091
:10479000E023D3F8F03DDB0702D4002002B070BD67
:1047A00000BEFAE72146FFF7BFF823691BB1224696
:1047B000032130469847012002B070BD94F90030C3
:1047C000A068002B05DB0028E7D02A46284903F023
:1047D00013FEE089A168E388284480B2294483421B
:1047E000E081A16016D03F2D14D9A28994F9004030
:1047F000131A9BB2402B28BF4023002C26DB90428B
:104800004FF0000130D01A4A3046FFF7EFFE002883
:10481000D1D1BCE7236923B102213046134A98471E
:1048200058B121780023C94330461A4601F080016F
:10483000FFF7DCFE0028BED1A9E701463046FFF7AE
:104840001BF980213046FFF717F9B4E7904208D0F2
:104850001A460748019303F0CFFD8021044A019BCB
:10486000D2E780210022CFE70A46CDE79CAE0020A8
:104870005CAE00202DE9F0410546FFF7C1F908B90B
:10488000BDE8F081FFF7C4F907460028F8D141F2EE
:10489000880305FB03F3134CE618F1780029EFD0E9
:1048A00010331C44204601F01DF83F28E8D9384653
:1048B000F178FFF777FE0028E2D0204601F012F8E9
:1048C0003F2809D9084A3846F17802EBC51240233F
:1048D000BDE8F041FFF78ABE3846F178BDE8F04107
:1048E000FFF772BEE8970020D8AD002010B504464F
:1048F000FFF786F908B9002010BDFFF789F90028F5
:10490000F9D141F28802034B02FB0433187900F01D
:10491000010010BDE897002041F2880208B5034B62
:1049200002FB003000F0C4FF08BD00BFF897002074
:104930002DE9F8434FF6FF7341F288049A4228BFED
:104940001A4600FB04F4DFF8748004F110054544B6
:10495000064692B2284601F021F80746FFF750F9C3
:1049600010B93846BDE8F883FFF752F981460028B0
:10497000F7D14444E378002BF3D0284600F0B2FF8F
:104980003F28EED94846E178FFF70CFE0028E8D032
:10499000284600F0A7FF3F2808D9074A4846402389
:1049A000E17802EBC612FFF721FEDAE74846E1782C
:1049B000FFF70AFED5E700BFD8AD0020E89700203A
:1049C0002DE9F04141F2880400FB04F41A4E04F191
:1049D000100535440746284601F048F9FFF710F95D
:1049E00008B9BDE8F081FFF713F980460028F8D137
:1049F0002644F378002BF4D0284600F073FF3F28BC
:104A0000EFD94046F178FFF7CDFD0028E9D02846E0
:104A100000F068FF3F2809D9084A4046F17802EBC8
:104A2000C7124023BDE8F041FFF7E0BD4046F178F2
:104A3000BDE8F041FFF7C8BDE8970020D8AD0020E1
:104A40002DE9F0410646FFF7DBF810B90020BDE87C
:104A5000F081FFF7DDF807460028F7D141F288041E
:104A600006FB04F4DFF8688004F124054544284679
:104A700000F01EFF0028E9D0A044384698F8021044
:104A8000FFF790FD0028E1D04022104B02EBC61446
:104A90001C442846214600F081FF054688B10346A4
:104AA0002246384698F80210FFF7A0FD38B94FF0BB
:104AB000E023D3F8F03DDB07C8D500BEC6E72846A3
:104AC000C5E798F80210FFF77FFDBFE7D8AD0020DB
:104AD000E897002038B54FF6FF7541F28803AA42E7
:104AE00028BF2A460A4C92B203FB004405462046E2
:104AF00001F010F8034620461C4600F0D9FE3F287E
:104B000001D8204638BD2846FFF79AFF204638BD19
:104B10000C98002041F2880208B5034B02FB0030DC
:104B200000F0E0FE08BD00BF0C98002041F28802B2
:104B3000024B02FB003001F099B800BF0C98002036
:104B4000F0B51A4C83B041F288020021204603F0F0
:104B500001FC0025FF234FF4E13108221448154FD2
:104B60000570009504F110006371A160A27304F157
:104B700038010123402200F06BFE01234FF48052E4
:104B800004F17801009304F1240000F061FE04F5C3
:104B900084563846FDF700F93046FDF7FDF8C4E9C4
:104BA0000757C4E90C6503B0F0BD00BFE8970020CB
:104BB00058AE002060A80020094B196B49B11A6A51
:104BC00012B10022C3E907220022C3E90C2201200E
:104BD00070471A6A002AFAD00120C3E9071170470A
:104BE000E8970020002210B50E4C0F482378026091
:104BF0000271DA0707D59B070BD5BDE810400121EC
:104C00000A4801F04FB8103001F030F823789B07C4
:104C1000F3D4064801F02AF8BDE81040012103480A
:104C200001F040B858AE0020E89700200C98002012
:104C3000F0B54B7983B0022B03D00025284603B092
:104C4000F0BD8B79022BF8D1264FBB783BB14FF0EA
:104C5000E023D3F8F03DDB07EFD500BEEDE78B781E
:104C600006463B700B780925CC18617824290BD1B6
:104C7000082A02D80FE0AA420DD323781C44617899
:104C80002B4424299DB2F6D005290AD0042902D14B
:104C900063790A2B13D00020FFF7ECFD284603B000
:104CA000F0BD21463046FFF75BFC0028CFD0A3784B
:104CB0007B7023781C442B4461789DB2E6E70A4B55
:104CC0002778019301330093022330461A46E119F5
:104CD000FFF7F8FB0028BAD00E3517FA85F5ADB20C
:104CE000D9E700BFE8970020EA970020137803F087
:104CF0006003202B08D170B5264C938894F800C02F
:104D00009C4503D0002070BD002070475378203BA5
:104D1000032BF7D8DFE803F027230D0201292ED05B
:104D200003291ED11C4BE3B100205188FBF7A8FEDC
:104D300017E0012923D0032913D15588174805F01E
:104D4000010686F00101257100F0ACFF144B43B160
:104D500031460020C5F34002FBF788FE01E001293F
:104D600011D0012070BD01290DD00329F9D10D4BBF
:104D7000002BF6D000200C49FBF71EFEF1E7114690
:104D8000FFF76CFCEDE711460723074AFFF780FCAD
:104D9000E7E700BFE8970020510900200C980020A9
:104DA0003D09002089080020F09700202DE9F047F8
:104DB000364F0C46FA7806468A421D4697F802C0DE
:104DC0003CD08C4513D04FF0E023D3F8F03DDB0707
:104DD00000D500BE0020BDE8F0872D4B23B12D4843
:104DE00000F076FD00284ED00020FFF743FDBB7891
:104DF000A34202D00120BDE8F087274B13B1002069
:104E0000AFF300800020FFF71BFE0028F2D12348FB
:104E100000F04EFD0028EDD1002DEBD015F03F0540
:104E2000E8D13046B978FFF7BDFB0028E2D02B4629
:104E30002A463046B978FFF7D9FBDBE7DFF8648014
:104E40009AB2414607F1100000F064FE144B002BAB
:104E5000C3D07B79FF2BC0D0002DBED007F1100945
:104E600008EB050A02E0C245B7D07B7918F8012BA0
:104E70009A42F8D1484600F02BFD0028F3D1797909
:104E8000AFF30080EFE7AFF30080ADE7E8970020D5
:104E900000000000F8970020000000000C9800209F
:104EA00000000000D8AD0020704700BF012070470F
:104EB000704700BF704700BF08B1002070472DE960
:104EC000F041144F0D46797816461C46FFF76AFBF1
:104ED00078B18DB9402C0CD8224631460E4803F0EB
:104EE0008BFA234679780020BDE8F0410A4AFFF7A3
:104EF0007DBB0020BDE8F08108483F2C80F8405081
:104F0000F7D8224631464130013403F075FAA4B295
:104F1000E7E700BFB0AF002030AF0020F0AE0020C8
:104F20000022024BC3E900229A607047B0AF002014
:104F3000012070470022024BC3E900229A607047AB
:104F4000B0AF0020F0B54B7983B0032B03D0002520
:104F5000284603B0F0BD91F804C00C46CCEBCC055C
:104F60001235ADB2954202D8214F7A783AB14FF05E
:104F7000E023D3F8F03DDA07E9D500BEE7E709788A
:104F8000621892F801E0BEF1210FF0D1BA60615CC5
:104F900006461144624607F1010CCDF804C007F142
:104FA000020CCDF800C0FFF78DFA0028DFD0A379FE
:104FB000BA68012B08BFE379B2F8072008BFFB707D
:104FC0000123BB71A378B978BA803B700029BFD0A8
:104FD00040233046074AFFF709FB0028B8D14FF0BD
:104FE000E023D3F8F03DDB07B2D500BEB0E700BF49
:104FF000B0AF002070AF0020F0B51446127883B037
:1050000002F01F0CBCF1010F02D0002003B0F0BD74
:10501000644EB4F804C033785FFA8CFC6345F4D175
:1050200012F06002054603D1012921D00120EDE7ED
:10503000202AEAD16378013B0A2BE6D801A252F874
:1050400023F000BFF54F0020E54F0020D54F002092
:10505000DB4E0020DB4E0020DB4E0020DB4E00202C
:10506000DB4E00209B4F00207D4F0020674F00202B
:10507000617863880629C8D11B0A212B7AD0222B9C
:10508000C3D11046FBF72EFA21460246B3882846C4
:10509000FFF7FEFACAE7012912D00329C6D16188B9
:1050A0000020C9B2B171FFF7FFFEBFE70129BDD1F2
:1050B00061880020090AF171FFF7F8FE0028A4D0EA
:1050C00021462846FFF7CAFAB0E701295DD0032937
:1050D000ACD1E08863884028044628BF402413F000
:1050E000FF014FEA1322304B07D0012805D9187869
:1050F000884202D1013CA4B2013300200094FBF7A6
:1051000053F993E7012991D10B46284A2146FFF72D
:10511000BFFA8BE7012989D10B46254A2146FFF7C3
:10512000B7FA83E7012981D1E6886388402E3746A4
:1051300028BF402713F0FF004FEA13222FD0012E83
:105140002DD90E46184B07F1FF3C1FFA8CF703F8D8
:10515000010B014600970020FBF724F933189BB29E
:10516000BBB94FF0E023D3F8F03DDB077FF54DAF3F
:1051700000BE4AE7B268002A3FF447AF21461378E1
:1051800003B0BDE8F040FFF783BAE388402B3FF659
:105190003CAF21462846044AFFF77AFA46E7002644
:1051A000014BD6E7B0AF0020F0AE0020B6AF002034
:1051B000B7AF002070B50C46204D114695F802C0DF
:1051C00095F801E0A44582B00AD0A6451ED04FF064
:1051D000E023D3F8F03DDB0720D4002002B070BDFF
:1051E000E6459CB213D00646D2B902220846144BBB
:1051F0000094FBF7D9F840233046114AA978FFF70D
:10520000F5F90028E3D0012002B070BD9CB271B95D
:10521000084622460B49FFF74BFEF4E700BEDCE7E9
:10522000234602210020064AFFF744FEE3E7234617
:1052300001210020034AFFF73DFEE4E7B0AF002064
:1052400070AF002030AF0020F0B5134D85B044F2B0
:105250004C020021284603F07DF8402700234FF43C
:1052600000560E4C0E4A1946CDE9024700920196AF
:105270001A460C4800F0EAF9002305F128013C44E5
:10528000009101221946CDE902470196281D00F040
:10529000DDF905B0F0BD00BF94B1002014B10020CD
:1052A000E0D10020BCD1002008B5044800F0FAF994
:1052B000034800F0F7F9012008BD00BFBCD1002071
:1052C00098B1002070B5084C00252646074806F81E
:1052D0000C5B00F0CBFC304600F0C8FC04F500533A
:1052E00083F82950657170BD94B10020C4D10020AD
:1052F0002DE9F84F4B79FF2B02D00020BDE8F88F45
:10530000DFF810810C4608F500570B7897F8291044
:105310000029F2D198F80550002DEED1A17804EBC8
:10532000030B88F800102179002943D006460BEBC7
:10533000020907F1300A9BF8011005290BD0D94565
:1053400002D837E0CB4535D29BF800108B449BF850
:1053500001100529F6D1D9452CD959463046FFF719
:10536000FFF8002847D09BF80210C90927D1504602
:1053700000F07CFC9BF8021097F8280087F82910B1
:10538000BBF80410C1F30A01A1F50071B1FA81F173
:10539000490961F3410087F828001B49304600F0B5
:1053A000EFF940B39BF80010207901358B44E9B246
:1053B0008842C0D8ABEB040398B2BDE8F88F13481D
:1053C00000F054FC9BF802C098F804E088F805C08F
:1053D000BBF804C00E49CCF30A0CACF5007CBCFA57
:1053E0008CFC4FEA5C1C6CF3410E002088F804E052
:1053F00000F08EF9D6E74FF0E023D3F8F03DDB075D
:105400007FF57BAF00BE78E7BCD10020A0B10020C3
:1054100098B1002094B1002070B51B4C064662790B
:1054200004F5005494F829C01D468C4504D08A42E6
:1054300018BF002015D070BDA38E63B9134B23B1E4
:1054400000201349AAB2AFF300803046114900F0A2
:1054500097F9012070BDE16AAAB20F4800F05AFB2B
:10546000ECE70E4B1BB10020A9B2AFF30080304631
:105470000B4900F04DF90028EBD12A463046084987
:1054800000F012F9E5E700BF94B100200000000031
:1054900014B10020BCD10020C4D1002000000000C5
:1054A00098B1002010B582B0B9B101280CD80B78A2
:1054B00053B1134C012B235402D0012002B010BD74
:1054C000FEF7AEFB0028F8D14FF0E023D3F8F03D13
:1054D000DB0700D500BE0020F0E70124084601A943
:1054E000ADF80440FEF79CFB38B94FF0E023D3F849
:1054F000F03DDA07E2D500BEE0E7014B1C70DDE7C6
:10550000E0AF0020F8B5037813F001041AD1037856
:1055100005465A07C3F3800701D52046F8BD0E465D
:105520004FF0FF31304603F0B9F82B7813F0010447
:105530000BD12B785B0709D42B78012443F00403AB
:105540002B7003E000242046F8BD3C46304603F0B3
:10555000E1F82046F8BD00BF70B50C4605464FF097
:10556000FF31204603F09AF82B78C3F380065B07DF
:1055700008D52B7813F0010311BF00262A7863F3B6
:1055800082022A70204603F0C5F8304670BD00BF85
:10559000C378828803F003000228C2F30A021FD0F6
:1055A000032803D001280AD000207047022914BF25
:1055B00040234FF48063934209D3012070470229AE
:1055C00040F2FF3308BF4FF480639342F6D24FF0AE
:1055D000E023D3F8F03DDB07E6D500BE002070479E
:1055E000022902D0402AE8D9F1E7B2F5007FE4D0E1
:1055F000EDE700BF0A44914226D291F801C0BCF108
:10560000050F05D091F800C061448A42F5D8704773
:1056100000B591F802C00CF07F0E00EB4E0E4FEA81
:10562000DC1C0EF80C3091F800C061448A4209D9A4
:1056300091F801C0BCF1050FEBD091F800C06144B6
:105640008A42F5D85DF804FB704700BF2DE9F041B0
:105650008E4682B0009390F800C0089EBDF824707A
:105660006EF3000C04461546012331463A4600F815
:1056700008CBBDF82C8000F0EBF806B13FB9012053
:105680000A9BA4F80280636002B0BDE8F08104F1D7
:105690001C063046FCF780FB0DB135460026C4E9F8
:1056A0000556ECE701207047F8B50746084640F27A
:1056B000FF13154610F8082B0C4612F0020F0CBF12
:1056C0003F261E4600F0F4F828B925B12E4202D13B
:1056D0002378DA0701D50020F8BD38466178FEF757
:1056E00061FF0028F7D0237813F0010307D04FF0B3
:1056F000E023D3F8F03DDB07EDD500BEEBE71A461B
:1057000038466178FEF772FF0028F0D0F8BD00BF80
:1057100070B501F10805064628460C4600F0C8F8A9
:1057200010B12378D80701D5002070BD30466178CC
:10573000FEF738FF0028F7D028466288616800F03D
:105740002DF92378054648B1D9070ED54FF0E0234F
:10575000D3F8F03DDA07E7D500BEE5E7DB07E3D491
:1057600030466178FEF730FFDEE703466268304678
:105770006178FEF73BFF0028E8D0284670BD00BFE7
:105780008A892DE9F0410B780C4605468AB9DF0776
:1057900025D44978FEF706FF08B322786388D60738
:1057A0003FD54FF0E023D3F8F03DDA0717D500BE20
:1057B00015E003F0020301F10808002B40460CBF7E
:1057C00040274FF400774FF6C07618BF4FF47E465F
:1057D00000F088F8874202D82378D80702D5002045
:1057E000BDE8F08128466178FEF7DCFE0028F6D09F
:1057F000404600F077F887421FD823786288D9079F
:10580000CFD43040904228BF104661780646E0B1C0
:10581000626833462846FEF7E9FE0028C1D03046CC
:10582000DEE761783BB162682846FEF7DFFE0028BC
:10583000B7D06088D4E71A46F6E72378DB07CED4E2
:1058400028466178FEF7C0FEC9E70246E1E700BFDF
:105850002DE9F041B2F5004F9DF8188024D8044698
:10586000C06817460E461D4618B14FF0FF3102F0D2
:1058700015FF206918B14FF0FF3102F00FFF002231
:10588000C5F30E03E06843EAC83362812660A7804F
:10589000E380228108B102F03DFF206908B102F0E7
:1058A00039FF0120BDE8F0810020BDE8F08100BF94
:1058B000038942899BB292B28088934236BFC2EB81
:1058C00040029B1A9B189BB2984228BF184670470B
:1058D0000289438990B29BB2C01AB0FA80F04009A5
:1058E000704700BF038942899BB2808892B293427D
:1058F00036BFC2EB40029B1A9B189BB2984286BFF0
:10590000C01A80B20020704738B5044600690D46C1
:1059100018B14FF0FF3102F0C1FE2189638989B2CD
:105920009BB2A288994236BFC3EB4200C81A401806
:1059300080B250B3824209D291422CBF891A891891
:105940008BB29A42638103D89B1A9BB29A42FBD9CD
:10595000E2882168C2F30E0202FB0311284602F01E
:105960004BFD6189012589B24B1C9BB29942A288EB
:105970000ED9002302FA05F15B1A9BB220696381FC
:1059800008B102F0C7FE284638BD054663899BB2C0
:10599000B3EB420F4FEA4201F0DBEDE72DE9F047B0
:1059A000064600698846914618B14FF0FF3102F073
:1059B00075FE338974899BB2A4B2B588A34236BF01
:1059C000C4EB45071F1BFF18BFB2002F4AD0BD42D2
:1059D00040D3B94528BFB946A5421FFA89F703D875
:1059E000641BA4B2A542FBD9B6F806A02B1B3168F4
:1059F0009BB2CAF30E029F42924602FB041123D9C6
:105A000013FB02F31FFA83F94A4640467D1B02F05E
:105A1000F3FC621912FB0AF2316808EB090092B23A
:105A200002F0EAFC7289B58892B2D3199BB29A420D
:105A30001AD96A009B1A9BB23069738108B102F0CF
:105A400069FE3846BDE8F087404607FB02F202F0E7
:105A5000D3FCE7E7AB422CBF5B1B5B199CB22F4624
:105A60007481B6E773899BB2B3EB450F4FEA4502E9
:105A7000E2DBDFE7F8B50446C0680E4618B14FF028
:105A8000FF3102F00BFE2589238961899BB289B21F
:105A9000A2888B4236BFC1EB42015B1A5B189BB2F6
:105AA0009A42ADB208D8E779FF0905D1E06808B19C
:105AB00002F030FE3846F8BD954219D32B469B1AAA
:105AC0009BB29342FBD2E2882068C2F30E0202FB33
